{
  "_format": "hh-sol-artifact-1",
  "contractName": "SimpleContract",
  "sourceName": "contracts/SimpleContract.sol",
  "abi": [
    {
      "anonymous": false,
      "inputs": [
        {
          "indexed": false,
          "internalType": "uint256",
          "name": "itemId",
          "type": "uint256"
        },
        {
          "indexed": false,
          "internalType": "string",
          "name": "name",
          "type": "string"
        },
        {
          "indexed": false,
          "internalType": "uint256",
          "name": "quantity",
          "type": "uint256"
        },
        {
          "indexed": false,
          "internalType": "string",
          "name": "imageUrl",
          "type": "string"
        },
        {
          "indexed": false,
          "internalType": "address",
          "name": "seller",
          "type": "address"
        }
      ],
      "name": "ItemAdded",
      "type": "event"
    },
    {
      "inputs": [
        {
          "internalType": "string",
          "name": "_name",
          "type": "string"
        },
        {
          "internalType": "uint256",
          "name": "_quantity",
          "type": "uint256"
        },
        {
          "internalType": "string",
          "name": "_imageUrl",
          "type": "string"
        }
      ],
      "name": "addAuctionItem",
      "outputs": [],
      "stateMutability": "nonpayable",
      "type": "function"
    },
    {
      "inputs": [
        {
          "internalType": "uint256",
          "name": "",
          "type": "uint256"
        }
      ],
      "name": "auctionItems",
      "outputs": [
        {
          "internalType": "string",
          "name": "name",
          "type": "string"
        },
        {
          "internalType": "uint256",
          "name": "quantity",
          "type": "uint256"
        },
        {
          "internalType": "string",
          "name": "imageUrl",
          "type": "string"
        },
        {
          "internalType": "address",
          "name": "seller",
          "type": "address"
        }
      ],
      "stateMutability": "view",
      "type": "function"
    },
    {
      "inputs": [],
      "name": "getAllAuctionItems",
      "outputs": [
        {
          "components": [
            {
              "internalType": "string",
              "name": "name",
              "type": "string"
            },
            {
              "internalType": "uint256",
              "name": "quantity",
              "type": "uint256"
            },
            {
              "internalType": "string",
              "name": "imageUrl",
              "type": "string"
            },
            {
              "internalType": "address",
              "name": "seller",
              "type": "address"
            }
          ],
          "internalType": "struct SimpleContract.Item[]",
          "name": "",
          "type": "tuple[]"
        }
      ],
      "stateMutability": "view",
      "type": "function"
    },
    {
      "inputs": [
        {
          "internalType": "uint256",
          "name": "index",
          "type": "uint256"
        }
      ],
      "name": "getAuctionItem",
      "outputs": [
        {
          "internalType": "string",
          "name": "",
          "type": "string"
        },
        {
          "internalType": "uint256",
          "name": "",
          "type": "uint256"
        },
        {
          "internalType": "string",
          "name": "",
          "type": "string"
        },
        {
          "internalType": "address",
          "name": "",
          "type": "address"
        }
      ],
      "stateMutability": "view",
      "type": "function"
    }
  ],
  "bytecode": "0x608060405234801561001057600080fd5b50611133806100206000396000f3fe608060405234801561001057600080fd5b506004361061004c5760003560e01c806368bae93414610051578063c269f44e14610084578063d2c069f0146100a0578063e643d4d5146100d3575b600080fd5b61006b600480360381019061006691906107ea565b6100f1565b60405161007b94939291906108f7565b60405180910390f35b61009e60048036038101906100999190610a7f565b610317565b005b6100ba60048036038101906100b591906107ea565b61044d565b6040516100ca94939291906108f7565b60405180910390f35b6100db6105bd565b6040516100e89190610c9e565b60405180910390f35b60606000606060008080549050851061013f576040517f08c379a000000000000000000000000000000000000000000000000000000000815260040161013690610d0c565b60405180910390fd5b600080868154811061015457610153610d2c565b5b906000526020600020906004020160405180608001604052908160008201805461017d90610d8a565b80601f01602080910402602001604051908101604052809291908181526020018280546101a990610d8a565b80156101f65780601f106101cb576101008083540402835291602001916101f6565b820191906000526020600020905b8154815290600101906020018083116101d957829003601f168201915b505050505081526020016001820154815260200160028201805461021990610d8a565b80601f016020809104026020016040519081016040528092919081815260200182805461024590610d8a565b80156102925780601f1061026757610100808354040283529160200191610292565b820191906000526020600020905b81548152906001019060200180831161027557829003601f168201915b505050505081526020016003820160009054906101000a900473ffffffffffffffffffffffffffffffffffffffff1673ffffffffffffffffffffffffffffffffffffffff1673ffffffffffffffffffffffffffffffffffffffff1681525050905080600001518160200151826040015183606001519450945094509450509193509193565b600060405180608001604052808581526020018481526020018381526020013373ffffffffffffffffffffffffffffffffffffffff168152509080600181540180825580915050600190039060005260206000209060040201600090919091909150600082015181600001908161038e9190610f67565b506020820151816001015560408201518160020190816103ae9190610f67565b5060608201518160030160006101000a81548173ffffffffffffffffffffffffffffffffffffffff021916908373ffffffffffffffffffffffffffffffffffffffff16021790555050507ff21979da8ce1326e3555a6cf5829ad0a16b1cf224f995fb9f9199d24334dc2ca600160008054905061042b9190611068565b8484843360405161044095949392919061109c565b60405180910390a1505050565b6000818154811061045d57600080fd5b906000526020600020906004020160009150905080600001805461048090610d8a565b80601f01602080910402602001604051908101604052809291908181526020018280546104ac90610d8a565b80156104f95780601f106104ce576101008083540402835291602001916104f9565b820191906000526020600020905b8154815290600101906020018083116104dc57829003601f168201915b50505050509080600101549080600201805461051490610d8a565b80601f016020809104026020016040519081016040528092919081815260200182805461054090610d8a565b801561058d5780601f106105625761010080835404028352916020019161058d565b820191906000526020600020905b81548152906001019060200180831161057057829003601f168201915b5050505050908060030160009054906101000a900473ffffffffffffffffffffffffffffffffffffffff16905084565b60606000805480602002602001604051908101604052809291908181526020016000905b82821015610797578382906000526020600020906004020160405180608001604052908160008201805461061490610d8a565b80601f016020809104026020016040519081016040528092919081815260200182805461064090610d8a565b801561068d5780601f106106625761010080835404028352916020019161068d565b820191906000526020600020905b81548152906001019060200180831161067057829003601f168201915b50505050508152602001600182015481526020016002820180546106b090610d8a565b80601f01602080910402602001604051908101604052809291908181526020018280546106dc90610d8a565b80156107295780601f106106fe57610100808354040283529160200191610729565b820191906000526020600020905b81548152906001019060200180831161070c57829003601f168201915b505050505081526020016003820160009054906101000a900473ffffffffffffffffffffffffffffffffffffffff1673ffffffffffffffffffffffffffffffffffffffff1673ffffffffffffffffffffffffffffffffffffffff1681525050815260200190600101906105e1565b50505050905090565b6000604051905090565b600080fd5b600080fd5b6000819050919050565b6107c7816107b4565b81146107d257600080fd5b50565b6000813590506107e4816107be565b92915050565b600060208284031215610800576107ff6107aa565b5b600061080e848285016107d5565b91505092915050565b600081519050919050565b600082825260208201905092915050565b60005b83811015610851578082015181840152602081019050610836565b60008484015250505050565b6000601f19601f8301169050919050565b600061087982610817565b6108838185610822565b9350610893818560208601610833565b61089c8161085d565b840191505092915050565b6108b0816107b4565b82525050565b600073ffffffffffffffffffffffffffffffffffffffff82169050919050565b60006108e1826108b6565b9050919050565b6108f1816108d6565b82525050565b60006080820190508181036000830152610911818761086e565b905061092060208301866108a7565b8181036040830152610932818561086e565b905061094160608301846108e8565b95945050505050565b600080fd5b600080fd5b7f4e487b7100000000000000000000000000000000000000000000000000000000600052604160045260246000fd5b61098c8261085d565b810181811067ffffffffffffffff821117156109ab576109aa610954565b5b80604052505050565b60006109be6107a0565b90506109ca8282610983565b919050565b600067ffffffffffffffff8211156109ea576109e9610954565b5b6109f38261085d565b9050602081019050919050565b82818337600083830152505050565b6000610a22610a1d846109cf565b6109b4565b905082815260208101848484011115610a3e57610a3d61094f565b5b610a49848285610a00565b509392505050565b600082601f830112610a6657610a6561094a565b5b8135610a76848260208601610a0f565b91505092915050565b600080600060608486031215610a9857610a976107aa565b5b600084013567ffffffffffffffff811115610ab657610ab56107af565b5b610ac286828701610a51565b9350506020610ad3868287016107d5565b925050604084013567ffffffffffffffff811115610af457610af36107af565b5b610b0086828701610a51565b9150509250925092565b600081519050919050565b600082825260208201905092915050565b6000819050602082019050919050565b600082825260208201905092915050565b6000610b5282610817565b610b5c8185610b36565b9350610b6c818560208601610833565b610b758161085d565b840191505092915050565b610b89816107b4565b82525050565b610b98816108d6565b82525050565b60006080830160008301518482036000860152610bbb8282610b47565b9150506020830151610bd06020860182610b80565b5060408301518482036040860152610be88282610b47565b9150506060830151610bfd6060860182610b8f565b508091505092915050565b6000610c148383610b9e565b905092915050565b6000602082019050919050565b6000610c3482610b0a565b610c3e8185610b15565b935083602082028501610c5085610b26565b8060005b85811015610c8c5784840389528151610c6d8582610c08565b9450610c7883610c1c565b925060208a01995050600181019050610c54565b50829750879550505050505092915050565b60006020820190508181036000830152610cb88184610c29565b905092915050565b7f496e76616c696420696e64657800000000000000000000000000000000000000600082015250565b6000610cf6600d83610822565b9150610d0182610cc0565b602082019050919050565b60006020820190508181036000830152610d2581610ce9565b9050919050565b7f4e487b7100000000000000000000000000000000000000000000000000000000600052603260045260246000fd5b7f4e487b7100000000000000000000000000000000000000000000000000000000600052602260045260246000fd5b60006002820490506001821680610da257607f821691505b602082108103610db557610db4610d5b565b5b50919050565b60008190508160005260206000209050919050565b60006020601f8301049050919050565b600082821b905092915050565b600060088302610e1d7fffffffffffffffffffffffffffffffffffffffffffffffffffffffffffffffff82610de0565b610e278683610de0565b95508019841693508086168417925050509392505050565b6000819050919050565b6000610e64610e5f610e5a846107b4565b610e3f565b6107b4565b9050919050565b6000819050919050565b610e7e83610e49565b610e92610e8a82610e6b565b848454610ded565b825550505050565b600090565b610ea7610e9a565b610eb2818484610e75565b505050565b5b81811015610ed657610ecb600082610e9f565b600181019050610eb8565b5050565b601f821115610f1b57610eec81610dbb565b610ef584610dd0565b81016020851015610f04578190505b610f18610f1085610dd0565b830182610eb7565b50505b505050565b600082821c905092915050565b6000610f3e60001984600802610f20565b1980831691505092915050565b6000610f578383610f2d565b9150826002028217905092915050565b610f7082610817565b67ffffffffffffffff811115610f8957610f88610954565b5b610f938254610d8a565b610f9e828285610eda565b600060209050601f831160018114610fd15760008415610fbf578287015190505b610fc98582610f4b565b865550611031565b601f198416610fdf86610dbb565b60005b8281101561100757848901518255600182019150602085019450602081019050610fe2565b868310156110245784890151611020601f891682610f2d565b8355505b6001600288020188555050505b505050505050565b7f4e487b7100000000000000000000000000000000000000000000000000000000600052601160045260246000fd5b6000611073826107b4565b915061107e836107b4565b925082820390508181111561109657611095611039565b5b92915050565b600060a0820190506110b160008301886108a7565b81810360208301526110c3818761086e565b90506110d260408301866108a7565b81810360608301526110e4818561086e565b90506110f360808301846108e8565b969550505050505056fea2646970667358221220a802ae5291bdb339b8728949049e6b2cb10f4f4027675ee0a8d456fa73a8961064736f6c63430008140033",
  "linkReferences": {},
  "deployedLinkReferences": {}
}